:1000000051C075C074C073C072C071C070C06FC081
:100010006EC059C56CC0E6C717C869C068C067C064
:1000200066C065C064C07E306D79335B5F707F7B76
:10003000771F0D3D4F4780016708370E151D0000E3
:1000400000000000000000000000000000000004AC
:10005000050700000000000000000000000102048D
:10006000081020408001020408102001020408103A
:100070002040804004040404040404040202020238
:10008000020203030303030302020300000000381B
:10009000003500320000000000370034003100005D
:1000A0009702520811241FBECFE5D4E0DEBFCDBFBA
:1000B00011E0A0E6B0E0E4E7F3E102C005900D92A4
:1000C000AC30B107D9F722E0ACE0B1E001C01D923D
:1000D000AE3CB207E1F710E0C2E5D0E003C02197E3
:1000E000FE0140D9C035D107D1F70FD941C988CF1A
:1000F0000F9380911C0190911D0100E021E1892B5B
:1001000009F020E245E050E070E060E080ED91E031
:10011000B1D420911A01809110019091110101E058
:10012000049709F000E044E050E070E060E080ED0A
:1001300091E0A0D4209118018091100190911101BB
:1001400001E0039709F000E043E050E070E060E078
:1001500080ED91E08FD42091160180911001909153
:10016000110101E0029709F000E042E050E070E088
:1001700060E080ED91E07ED4209114018091100127
:100180009091110101E0019709F000E041E050E099
:1001900070E060E080ED91E06DD400E0209112010C
:1001A00050E040E070E060E080ED91E063D40F91BA
:1001B00008950F9362E670E081E392E0EBD78091BF
:1001C0001C0190911D0100E021E1892B09F020E242
:1001D00045E050E070E060E088E791E04BD420918A
:1001E0001A01809110019091110101E0049709F02A
:1001F00000E044E050E070E060E088E791E03AD44D
:1002000020911801809110019091110101E0039754
:1002100009F000E043E050E070E060E088E791E042
:1002200029D420911601809110019091110101E0D3
:10023000029709F000E042E050E070E060E088E7FB
:1002400091E018D420911401809110019091110136
:1002500001E0019709F000E041E050E070E060E06B
:1002600088E791E007D400E02091120150E040E0DF
:1002700070E060E088E791E0FDD30F9108950F935F
:1002800000E020911A0144E050E070E060E080E27C
:1002900091E0F0D32091180143E050E070E060E07D
:1002A00080E291E0E7D32091160142E050E070E057
:1002B00060E080E291E0DED32091140141E050E063
:1002C00070E060E080E291E0D5D32091120150E02F
:1002D00040E070E060E080E291E0CCD30F910895BF
:1002E0000F9326E040E855E260E070E081E392E0A1
:1002F00028D640E070E060E080ED91E0DAD248E09E
:1003000050E070E060E080ED91E0F5D270E060E0F8
:1003100080ED91E001D340E070E060E088E791E09B
:10032000C8D248E050E070E060E088E791E0E3D2B6
:1003300070E060E088E791E0EFD240E070E060E0DC
:1003400080E291E0B6D248E050E070E060E080E208
:1003500091E0D1D270E060E080E291E0DDD200E097
:1003600022E047E050E070E060E080ED91E082D371
:1003700020E046E050E070E060E080ED91E07AD36C
:1003800022E045E050E070E060E080ED91E072D363
:1003900021E044E050E070E060E080ED91E06AD35D
:1003A00020E043E050E070E060E080ED91E062D357
:1003B00029E042E050E070E060E080ED91E05AD347
:1003C00023E041E050E070E060E080ED91E052D346
:1003D00020E050E040E070E060E080ED91E04AD342
:1003E00020E043E050E070E060E088E791E042D335
:1003F00001E021E042E050E070E060E088E791E059
:1004000039D300E022E041E050E070E060E088E7AE
:1004100091E030D320E050E040E070E060E088E719
:1004200091E028D360ED77E080E090E00F91BBC3CE
:1004300066E770E081E392E09CD660910E017091D6
:100440000F014AE050E081E392E04ED760911C0139
:1004500070911D014AE050E081E392E03FD7609146
:100460001A0170911B014AE050E081E392E036D717
:1004700060911801709119014AE050E081E392E027
:100480002DD760911601709117014AE050E081E389
:1004900092E024D760911401709115014AE050E078
:1004A00081E392E01BD760911201709113014AE041
:1004B00050E081E392E018D7809160009091610054
:1004C0008130910509F414CE8230910509F471CE82
:1004D000039709F4D4CE0895809160009091610053
:1004E0008130910551F46BE870E081E392E052D6DF
:1004F00070E060E080ED91E00FC28230910551F430
:100500006AE970E081E392E045D670E060E088E758
:1005100091E0F2CF039751F469EA70E081E392E051
:1005200039D670E060E080E291E0E6CF08950F9365
:100530001F9301E010E023E030E044E050E065E08C
:1005400070E080ED91E01BD226E030E044E050E026
:1005500065E070E088E791E012D227E030E044E007
:1005600050E065E070E080E291E009D21F910F91C8
:10057000089581E392E016D4181619060CF030C1E4
:1005800081E392E029D420910E0130910F0186344D
:1005900081F42115310539F481E090E090930F0149
:1005A00080930E0108952130310519F482E090E026
:1005B000F5CF2230310589F4082E000C990BC09735
:1005C0004AE0489F9001499F300D112430930D015E
:1005D00020930C0183E090E0E1CF40910C01509119
:1005E0000D0123303105F1F4082E000C990BC09752
:1005F000840F951F90930D0180930C0184E090E08F
:1006000090930F0180930E0168EB70E081E392E01C
:10061000B0D560910C0170910D014AE050E081E38A
:1006200092E062C6141615060CF0DAC024303105CB
:10063000C1F425E030E030930F0120930E01082E25
:10064000000C990BC097909361008093600060EC60
:1006500070E081E392E08DD560916000709161005F
:10066000DCCF25303105A9F426E030E030930F01CE
:1006700020930E01082E000C990BC0974AE0489F6A
:100680009001499F300D112430931F0120931E01CA
:10069000089526303105F1F427E030E030930F0162
:1006A00020930E01082E000C990BC09720911E017B
:1006B00030911F01820F931F90931F0180931E01A1
:1006C0006CEC70E081E392E054D560911E01709172
:1006D0001F01A3CF2730310579F428E030E03093B3
:1006E0000F0120930E01082E000C990BC0979093D8
:1006F0001B0180931A0108952830310579F429E00F
:1007000030E030930F0120930E01082E000C990B5E
:10071000C0979093190180931801089529303105ED
:1007200079F42AE030E030930F0120930E01082E77
:10073000000C990BC09790931701809316010895B0
:100740002A30310579F42BE030E030930F0120930B
:100750000E01082E000C990BC09790931501809301
:10076000140108952B30310579F42CE030E03093FA
:100770000F0120930E01082E000C990BC097909347
:1007800013018093120108952C30310579F42DE086
:1007900030E030930F0120930E01082E000C990BCE
:1007A000C09790931D0180931C0108952D30310551
:1007B000B9F44A305105C9F4082E000C990BC097C2
:1007C000909311018093100180911E0190911F015F
:1007D000009739F0019739F010920F0110920E0135
:1007E000089526DEF9CF78DEF7CF61ED70E081E382
:1007F00092E0D0D4F1CF8F929F92AF92BF92CF92DE
:10080000DF92EF92FF920F931F93CF93DF9300D06D
:10081000CDB7DEB78C0149832A83660F771FF801B5
:10082000EA5AFF4FE080F180EE0CFF1CF801CF0187
:10083000801B910B8E159F0514F41192F8CF8981BE
:10084000F801E60FF71F81838A818083680184E5C0
:10085000C80ED11C60E0F601808141D24801F2E56A
:100860008F0E911C580180E5A80EB11C1E141F04A8
:1008700074F4E1E0EE1AF108F801EE0DFF1D20819D
:1008800041E0F4016081F501808156D2EFCF61E053
:10089000F60180810F900F90DF91CF911F910F9102
:1008A000FF90EF90DF90CF90BF90AF909F908F9090
:1008B00016C277FD0EC0FC01EA5AFF4F208131813C
:1008C0006217730734F420E0411101C021E04CE0CD
:1008D00092CF089577FD0EC0FC01EA5AFF4F2081A8
:1008E00031816217730734F44830510518F4242F0E
:1008F0004BE081CF089577FD0EC0FC01EA5AFF4F0F
:10090000208131816217730734F44031510518F4A6
:10091000242F4AE070CF0895DF92EF92FF920F9359
:100920001F93CF93DF9377FD22C0FC01EA5AFF4F5C
:100930002081318162177307D4F4EB017C018B01B4
:1009400083E0000F111F8A95E1F7005F1F4F0E0D26
:100950001F1DDD24D394F80111928F0120E04D2D4D
:10096000BE01C70148DFD394F9E0DF12F4CFDF9175
:10097000CF911F910F91FF90EF90DF9008956F92AC
:100980007F928F929F92AF92BF92CF92DF92EF921F
:10099000FF920F931F93CF93DF93EC01D62EC72EB8
:1009A0007C0180E5E80EF11CF701608371833E0154
:1009B000F2E56F0E711CF301518340834E01F4E5A3
:1009C0008F0E911CF40131832083C8010197089791
:1009D00010F008E010E05E01F6E5AF0EB11CF50185
:1009E0001183008361E08D2D3ED161E0F3018081B0
:1009F0003AD161E0F401808136D161E0F401808177
:100A00006ED1F701D082C182FE0170961192EE156F
:100A1000FF05E1F710E000E0F50180819181081702
:100A20001907CCF420E04FE0B801CE01E4DE47E046
:100A300050E0B801CE014EDF20E049E0B801CE0120
:100A4000DADEB801CE0168DF41E0B801CE0131DF66
:100A50000F5F1F4FE1CFDF91CF911F910F91FF905B
:100A6000EF90DF90CF90BF90AF909F908F907F904E
:100A70006F9008950F9377FD24C0FC01EA5AFF4F51
:100A80000190F081E02D6E177F07DCF448305105AE
:100A9000C0F42933B0F4DB0133E0AA0FBB1F3A9551
:100AA000E1F7E22FF0E0EA5DFF4F249101112068A9
:100AB000A80FB91FA40FB51F50962C934F5F0F912D
:100AC0009ACE0F9108951F920F920FB60F92112494
:100AD0002F933F938F939F93AF93BF9380912D025A
:100AE00090912E02A0912F02B091300230912C02F1
:100AF00026E0230F2D3768F129E8230F0396A11D67
:100B0000B11D20932C0280932D0290932E02A0936E
:100B10002F02B09330028091280290912902A09177
:100B20002A02B0912B020196A11DB11D80932802CB
:100B300090932902A0932A02B0932B02BF91AF9108
:100B40009F918F913F912F910F900FBE0F901F900B
:100B500018950296A11DB11DD4CF3FB7F89480918E
:100B6000280290912902A0912A02B0912B0222B76B
:100B700008B600FE05C02F3F19F00196A11DB11D5A
:100B80003FBFBA2FA92F982F8827BC01CD01620F34
:100B9000711D811D911D43E0660F771F881F991FEE
:100BA0004A95D1F708958F929F92AF92BF92CF92BC
:100BB000DF92EF92FF926B017C01CFDF4B015C0172
:100BC000C114D104E104F104D9F0A9D3C6DF681936
:100BD00079098A099B09683E73408105910580F374
:100BE00021E0C21AD108E108F10888EE880E83E0FE
:100BF000981EA11CB11CC114D104E104F10431F709
:100C0000FF90EF90DF90CF90BF90AF909F908F902C
:100C10000895789483B7836083BF89B7816089BF63
:100C200082E08EBD8EB581608EBD8FB581608FBD37
:100C300085B5846085BD85B5806485BD86E886B947
:100C40001AB80895853041F0873049F0843051F466
:100C50008FB58F778FBD08958FB58F7DFBCF85B50D
:100C60008F7D85BD0895CF93DF9390E0FC01E35A1B
:100C7000FF4F24918C589F4FFC0184918823C9F029
:100C800090E0880F991FFC01EB56FF4FA591B4919E
:100C9000FC01E557FF4FC591D49161110DC09FB77D
:100CA000F8948C91209582238C9388812823288323
:100CB0009FBFDF91CF910895623051F49FB7F894B0
:100CC0003C91822F809583238C93E8812E2BEFCF4C
:100CD0008FB7F894EC912E2B2C938FBFEACF1F93F4
:100CE000CF93DF93282F30E0F901EA5BFF4F849127
:100CF000F901E35AFF4FD491F901EC58FF4FC49129
:100D0000CC23A1F0162F81119DDFEC2FF0E0EE0F28
:100D1000FF1FE557FF4FA591B4918FB7F894EC9161
:100D2000111108C0D095DE23DC938FBFDF91CF91E6
:100D30001F910895DE2BF8CFBF92CF92DF92EF92F2
:100D4000FF920F931F93CF93DF93C82ED62EB42E0E
:100D5000D0E0C0E0022F10E087E0E82EF12CB801CF
:100D60008C2FBB2019F0C7018C1B9D0B02C0759501
:100D700067958A95E2F761708C2DB1DF61E08D2D6A
:100D8000AEDF60E08D2DABDF2196C830D10539F79D
:100D9000DF91CF911F910F91FF90EF90DF90CF9057
:100DA000BF900895FC01918D228D892F90E0805C89
:100DB0009F4F821B91098F7399270895FC01918D94
:100DC000828D981731F0828DE80FF11D858D90E0AE
:100DD00008958FEF9FEF0895FC01918D828D9817F4
:100DE00061F0A28DAE0FBF2FB11D5D968C91928DDB
:100DF0009F5F9F73928F90E008958FEF9FEF08950C
:100E0000FC01538D448D252F30E0842F90E0821B10
:100E1000930B541710F0CF9608950197089589E425
:100E200098E0892B39F080E090E0892B19F031D1DE
:100E30008111E6C80895FC01A48DA80FB92FB11D3A
:100E4000A35ABF4F2C91848D90E001968F73992700
:100E5000848FA689B7892C93A089B1898C918064ED
:100E60008C93938D848D981306C00288F389E02DAE
:100E700080818F7D80830895CF93DF93EC01888DEF
:100E80008823B1F0AA89BB89E889F9898C9185FD0D
:100E900003C0808186FD0CC00FB607FCF7CF8C9194
:100EA00085FFF2CF808185FFEDCFCE01C4DFEACF91
:100EB000DF91CF910895EF92FF920F931F93CF93FD
:100EC000DF93EC0181E0888F9B8D8C8D981316C089
:100ED000E889F989808185FF11C0EE89FF896083E7
:100EE000E889F98980818064808381E090E0DF91E6
:100EF000CF911F910F91FF90EF900895F62E0B8DDB
:100F000010E00F5F1F4F0F731127E02E8C8D8E1195
:100F10000BC00FB607FCFACFE889F989808185FFFD
:100F2000F5CFCE0188DFF2CFEB8DEC0FFD2FF11D59
:100F3000E35AFF4FF0820B8FEA89FB898081806240
:100F4000D3CFCF92DF92EF92FF921F93CF93DF9395
:100F5000EC016A017B01122F60E874E88EE190E0F9
:100F6000A7019601DDD1215031094109510956955A
:100F7000479537952795E889F98982E0808321157F
:100F800080E1380790F0E889F989108260E472E422
:100F90008FE090E0A7019601C3D1215031094109AA
:100FA00051095695479537952795EC85FD853083F2
:100FB000EE85FF852083188E1068EC89FD891083EB
:100FC000EA89FB89808188698083EA89FB8980813D
:100FD0008F7D8083DF91CF911F91FF90EF90DF9005
:100FE000CF9008951F920F920FB60F9211242F9356
:100FF0008F939F93EF93FF93E0914102F091420210
:101000008081E0914702F091480282FD1BC09081EF
:1010100080914A028F5F8F7320914B02821741F0BB
:10102000E0914A02F0E0EF5CFD4F958F80934A0219
:10103000FF91EF919F918F912F910F900FBE0F9085
:101040001F9018958081F4CF1F920F920FB60F92C8
:1010500011242F933F934F935F936F937F938F93BD
:101060009F93AF93BF93EF93FF9381E392E0E3DE0F
:10107000FF91EF91BF91AF919F918F917F916F9170
:101080005F914F913F912F910F900FBE0F901F9046
:10109000189581E392E086DE21E0892B09F420E0B7
:1010A000822F0895E1E3F2E01382128288EE93E04A
:1010B000A0E0B0E084839583A683B7838AEF90E0B5
:1010C0009183808380E490E09587848729E230E0F3
:1010D000378726872BE230E0318B208B2AE230E005
:1010E000338B228B958B848B8CE290E0978B868B55
:1010F000118E128E138E148E0895AF92BF92CF92DE
:10110000DF92EF92FF920F931F93CF93DF936C01C7
:101110007B018B01040F151FEB015E01AE18BF08A8
:10112000C017D10759F06991D601ED91FC9101905A
:10113000F081E02DC6010995892B79F7C501DF9172
:10114000CF911F910F91FF90EF90DF90CF90BF90C4
:10115000AF900895FB0101900020E9F73197AF01AE
:10116000461B570BDC01ED91FC910280F381E02DD1
:1011700009946115710509F0EDCF90E080E00895C4
:10118000DC01ED91FC910190F081E02D099468E083
:1011900071E0E0CF0F931F93CF93DF938C01D0E0EA
:1011A000C0E06115710511F0D5DFEC01C801EFDF7A
:1011B0008C0F9D1FDF91CF911F910F9108958F92FA
:1011C0009F92AF92BF92EF92FF920F931F93CF9394
:1011D000DF93CDB7DEB7A1970FB6F894DEBF0FBE91
:1011E000CDBF7C01FA01CB0119A2223008F42AE01C
:1011F0008E010F5D1F4F822E912CB12CA12CBF01AF
:10120000A50194018DD0F901CA016A3004F5605D31
:10121000D8016E938D01232B242B252B81F790E091
:1012200080E0109719F0BD01C70194DFA1960FB6B9
:10123000F894DEBF0FBECDBFDF91CF911F910F910C
:10124000FF90EF90BF90AF909F908F900895695C52
:10125000DFCFCF92DF92EF92FF920F931F93CF9346
:10126000DF932115310581F4DC01ED91FC910190B2
:10127000F081E02D642FDF91CF911F910F91FF90AE
:10128000EF90DF90CF9009942A303105F1F42AE0F5
:1012900077FF1BC06A017B01EC016DE271DF8C01FD
:1012A00044275527BA014C195D096E097F092AE0C8
:1012B000CE0185DF800F911FDF91CF911F910F919C
:1012C000FF90EF90DF90CF900895DF91CF911F9125
:1012D0000F91FF90EF90DF90CF9071CF9A01AB010B
:1012E000770F660B770BB5CF0F931F93CF93DF93D9
:1012F000EC01F4DF8C01CE014ADF800F911FDF91FA
:10130000CF911F910F910895089583DCFDDFE8D7F9
:10131000CFE0D7E02ED92097E9F381DDFBCF089508
:10132000A1E21A2EAA1BBB1BFD010DC0AA1FBB1FE9
:10133000EE1FFF1FA217B307E407F50720F0A21B5B
:10134000B30BE40BF50B661F771F881F991F1A94C8
:1013500069F760957095809590959B01AC01BD01F2
:10136000CF010895EE0FFF1F0590F491E02D099431
:04137000F894FFCF1F
:101374000100457363726576656E646F206E6F203D
:101384006C6364203200746F74616C4279746573A9
:10139400526563656269646F7320004C696D7061A6
:1013A4006E646F206C63642031004C696D70616EF3
:1013B400646F206C63642032004C696D70616E64EC
:1013C4006F206C63642033006C656E676874200062
:1013D4006E756D446973706C61792000636D64206F
:1013E400004E6F7420616C6C206279746573207791
:1013F400657265206265696E6720726563656976EA
:1014040065642E2E2E00000000005B077D08000797
:0C1414003C07D206EC06DE060D0A0000C4
:00000001FF
