:020000040000FA
:100000000C946D000C9495000C9495000C94950044
:100010000C9495000C9495000C9495000C9495000C
:100020000C9495000C9495000C9495000C949500FC
:100030000C9495000C9495000C9495000C949500EC
:100040000C948F040C9495000C945D040C9437046C
:100050000C9495000C9495000C9495000C949500CC
:100060000C9495000C94950000000008000201001B
:100070000003040700000000000000007E306D79DE
:10008000335B5F707F7B771F0D3D4F4780016708B3
:10009000370E151D000000000000000000000000E9
:1000A000250028002B0000000000240027002A0063
:1000B000040404040404040402020202020203030E
:1000C0000303030301020408102040800102040816
:1000D0001020010204081020D90411241FBECFEF04
:1000E000D8E0DEBFCDBF11E0A0E0B1E0EAEAF2E186
:1000F00002C005900D92AC3AB107D9F723E0ACEA03
:10010000B1E001C01D92AE36B207E1F710E0CDE6D6
:10011000D0E004C02197FE010E944D09CC36D107E2
:10012000C9F70E9417050C9453090C94000090E045
:10013000FC01EC53FF4F249180559F4FFC018491AB
:10014000882399F090E0880F991FFC01EA55FF4F32
:10015000A591B491FC01E456FF4F859194918FB71E
:10016000F894EC91E22BEC938FBF0895AF92BF927D
:10017000CF92DF92EF92FF920F931F93CF93DF9373
:100180006C017B018B01040F151FEB015E01AE18A2
:10019000BF08C017D10759F06991D601ED91FC91C4
:1001A0000190F081E02DC6010995892B79F7C501F1
:1001B000DF91CF911F910F91FF90EF90DF90CF9043
:1001C000BF90AF900895FC01538D448D252F30E0F2
:1001D000842F90E0821B930B541710F0CF96089554
:1001E00001970895FC01918D828D981761F0A28D81
:1001F000AE0FBF2FB11D5D968C91928D9F5F9F7347
:10020000928F90E008958FEF9FEF0895FC01918DFC
:10021000828D981731F0828DE80FF11D858D90E069
:1002200008958FEF9FEF0895FC01918D228D892F06
:1002300090E0805C9F4F821B91098F7399270895EE
:1002400089EC91E00E94140121E0892B09F420E05F
:10025000822F089580E090E0892B29F00E942001F0
:1002600081110C9400000895FC01A48DA80FB92FF2
:10027000B11DA35ABF4F2C91848D90E001968F73CE
:100280009927848FA689B7892C93A089B1898C91ED
:10029000837080648C93938D848D981306C002883C
:1002A000F389E02D80818F7D80830895EF92FF9206
:1002B0000F931F93CF93DF93EC0181E0888F9B8D89
:1002C0008C8D98131AC0E889F989808185FF15C043
:1002D0009FB7F894EE89FF896083E889F989808166
:1002E0008370806480839FBF81E090E0DF91CF9135
:1002F0001F910F91FF90EF900895F62E0B8D10E057
:100300000F5F1F4F0F731127E02E8C8D8E110CC0C5
:100310000FB607FCFACFE889F989808185FFF5CF10
:10032000CE010E943401F1CFEB8DEC0FFD2FF11DBA
:10033000E35AFF4FF0829FB7F8940B8FEA89FB894D
:1003400080818062CFCFCF93DF93EC01888D8823AB
:10035000B9F0AA89BB89E889F9898C9185FD03C028
:10036000808186FD0DC00FB607FCF7CF8C9185FF0D
:10037000F2CF808185FFEDCFCE010E943401E9CF1D
:10038000DF91CF91089590E0FC01E859FF4F24914F
:10039000FC01EC53FF4F3491FC01E055FF4FE49119
:1003A000EE23C9F0222339F0233001F1A8F42130E3
:1003B00019F1223029F1F0E0EE0FFF1FE456FF4F54
:1003C000A591B4918FB7F894EC91611126C0309546
:1003D0003E233C938FBF08952730A9F02830C9F001
:1003E000243049F7809180008F7D03C08091800088
:1003F0008F7780938000DFCF84B58F7784BDDBCF8C
:1004000084B58F7DFBCF8091B0008F778093B00053
:10041000D2CF8091B0008F7DF9CF3E2BDACF3FB79E
:10042000F8948091B1019091B201A091B301B09183
:10043000B40126B5A89B05C02F3F19F00196A11D58
:10044000B11D3FBFBA2FA92F982F8827BC01CD011E
:10045000620F711D811D911D42E0660F771F881F7D
:10046000991F4A95D1F708954F925F926F927F92AC
:100470008F929F92AF92BF92CF92DF92EF92FF92B4
:100480000F931F93CF93DF9300D0CDB7DEB78C01CE
:1004900049832A83660F771FF801EA5AFF4FE080ED
:1004A000F180EE0CFF1CF801CF01801B910B8E1523
:1004B0009F0514F41192F8CF8981F801E60FF71F18
:1004C00081838A818083680184E5C80ED11C60E045
:1004D000F60180810E94C3015801F2E5AF0EB11C04
:1004E000480180E5880E911C1E141F040CF5E1E004
:1004F000EE1AF108F801EE0DFF1D6080F501508045
:10050000F401408088E0782E662D661F6627661FFE
:10051000842D0E94C301660C61E0852D0E94C301F9
:1005200060E0852D0E94C3017A947110EDCFDCCF7D
:1005300061E0F60180810F900F90DF91CF911F91C4
:100540000F91FF90EF90DF90CF90BF90AF909F9072
:100550008F907F906F905F904F900C94C301FC013F
:10056000EA5AFF4F0190F081E02D1E161F06ACF4F1
:10057000493398F4E42FF0E0E458FF4FE49121115F
:10058000E068DC01A60FB71F5096EC9341E0460FE0
:100590002E2F70E060E00C9434020895FC01EA5ABA
:1005A000FF4F208131811216130634F428E04AE00F
:1005B00070E060E00C9434020895DF92EF92FF92B5
:1005C0000F931F93CF93DF93FC01EA5AFF4F2081D3
:1005D000318162177307C4F47B018C01EB0183E066
:1005E000CC0FDD1F8A95E1F76096C00FD11FDD2487
:1005F000D394199220E04D2DB701C8010E94340216
:10060000D39489E0D812F5CFDF91CF911F910F914C
:10061000FF90EF90DF9008958F929F92AF92BF92DC
:10062000CF92DF92EF92FF920F931F93CF93DF93BE
:100630008C01EC01C05BDF4F85E0A82EB12CB982A4
:10064000A882480182E5880E911C84E090E0F401C4
:10065000918380836801F4E5CF0ED11CF60171838C
:1006600060837801F6E5EF0EF11C81E090E0F70180
:100670009183808385E00E949700F40180810E942D
:100680009700F60180810E94970061E0F601808169
:100690000E94C301B982A882F80170961192CE1708
:1006A000DF07E1F7D0E0C0E0F70180819181C81752
:1006B000D90754F520E04FE0BE01C8010E94340282
:1006C000F70180819181C817D90734F427E04BE006
:1006D000BE01C8010E94340220E049E0BE01C80109
:1006E0000E943402BE01C8010E94DD02F701808130
:1006F0009181C817D90734F420E04CE0BE01C8014D
:100700000E9434022196D0CFDF91CF911F910F919B
:10071000FF90EF90DF90CF90BF90AF909F908F9021
:100720000895FC0101900020E9F73197AF01481BC3
:10073000590BBC0189EC91E00C94B600CF93DF9388
:100740000E949103EC0184E191E00E9491038C0FDF
:100750009D1FDF91CF9108958F929F92AF92BF928C
:10076000CF92DF92EF92FF920F931F93CF93DF937D
:10077000CDB7DEB7A1970FB6F894DEBF0FBECDBFE1
:100780006C01990FEE08FF08F7FE41C06DE289EC9D
:1007900091E00E9456018C0122273327A9012C19D0
:1007A0003D094E095F0919A2CE0181967C019AE0AC
:1007B000892E912CA12CB12CCA01B901A50194015B
:1007C0000E942B09605DF70162937F0121153105BD
:1007D0004105510589F790E080E0309719F0CF018D
:1007E0000E949103800F911FA1960FB6F894DEBF6F
:1007F0000FBECDBFDF91CF911F910F91FF90EF9072
:10080000DF90CF90BF90AF909F908F900895A701F9
:10081000960119A28E010F5D1F4F8AE0C82ED12CC0
:10082000E12CF12CCA01B901A70196010E942B0904
:10083000605DF80162938F01211531054105510575
:1008400089F790E080E0309779F2CF010E94910320
:10085000CBCFCF93DF930E94AC03EC0184E191E016
:100860000E9491038C0F9D1FDF91CF9108951F92DD
:100870000F920FB60F9211242F933F934F935F93D4
:100880006F937F938F939F93AF93BF93EF93FF9358
:1008900089EC91E00E943401FF91EF91BF91AF91FB
:1008A0009F918F917F916F915F914F913F912F9188
:1008B0000F900FBE0F901F9018951F920F920FB6BA
:1008C0000F9211242F938F939F93EF93FF93E091B7
:1008D000D901F091DA018081E091DF01F091E0012E
:1008E00082FD1BC090818091E2018F5F8F73209108
:1008F000E301821741F0E091E201F0E0E753FE4F9F
:10090000958F8093E201FF91EF919F918F912F91AD
:100910000F900FBE0F901F9018958081F4CF1F92FB
:100920000F920FB60F9211242F933F938F939F93A3
:10093000AF93BF938091AD019091AE01A091AF01B3
:10094000B091B0013091AC0123E0230F2D3758F561
:100950000196A11DB11D2093AC018093AD01909330
:10096000AE01A093AF01B093B0018091B10190911D
:10097000B201A091B301B091B4010196A11DB11DC6
:100980008093B1019093B201A093B301B093B401ED
:10099000BF91AF919F918F913F912F910F900FBE7B
:1009A0000F901F90189526E8230F0296A11DB11DE8
:1009B000D2CFE9ECF1E01382128288EE93E0A0E05E
:1009C000B0E084839583A683B78386E091E091832A
:1009D000808385EC90E09587848784EC90E097870E
:1009E000868780EC90E0918B808B81EC90E0938BFC
:1009F000828B82EC90E0958B848B86EC90E0978BD9
:100A0000868B118E128E138E148E63E070E086E159
:100A100093E00E940C0366E070E08EEB92E00E948F
:100A20000C0367E070E086E692E00C940C03CF9331
:100A3000DF9300D01F92CDB7DEB7789484B5826083
:100A400084BD84B5816084BD85B5826085BD85B572
:100A5000816085BD80916E00816080936E001092F0
:100A6000810080918100826080938100809181006B
:100A700081608093810080918000816080938000FC
:100A80008091B10084608093B1008091B00081605A
:100A90008093B00080917A00846080937A00809186
:100AA0007A00826080937A0080917A0081608093DE
:100AB0007A0080917A00806880937A001092C10059
:100AC000E091D901F091DA0182E08083E091D501D3
:100AD000F091D6011082E091D701F091D8018FEC0E
:100AE00080831092E101E091DD01F091DE0186E06A
:100AF0008083E091DB01F091DC0180818061808363
:100B0000E091DB01F091DC01808188608083E091DD
:100B1000DB01F091DC01808180688083E091DB0162
:100B2000F091DC0180818F7D808380916C039091B6
:100B30006D031816190644F421E04CE070E060E003
:100B400086E193E00E94340286E193E00E94CE02A7
:100B500070E060E086E193E00E94DD028091140382
:100B6000909115031816190644F421E04CE070E04A
:100B700060E08EEB92E00E9434028EEB92E00E94E5
:100B8000CE0270E060E08EEB92E00E94DD02809188
:100B9000BC029091BD021816190644F421E04CE005
:100BA00070E060E086E692E00E94340286E692E021
:100BB0000E94CE0270E060E086E692E00E94DD02D4
:100BC00020E042E067E070E086E193E00E94AF023F
:100BD00020E040E066E070E086E193E00E94AF0232
:100BE00020E042E065E070E086E193E00E94AF0221
:100BF00020E041E064E070E086E193E00E94AF0213
:100C000020E040E063E070E086E193E00E94AF0204
:100C100020E049E062E070E086E193E00E94AF02EC
:100C200020E043E061E070E086E193E00E94AF02E3
:100C300020E040E070E060E086E193E00E94AF02D7
:100C400020E040E063E070E08EEB92E00E94AF02B3
:100C500021E041E062E070E08EEB92E00E94AF02A2
:100C600020E042E061E070E08EEB92E00E94AF0293
:100C700020E040E070E060E08EEB92E00E94AF0286
:100C80000E940F024B015C0170EDC72E77E0D72E5A
:100C9000E12CF12C0E940F02681979098A099B093D
:100CA000683E734081059105A8F321E0C21AD1087E
:100CB000E108F10838EE830E33E0931EA11CB11C4D
:100CC000C114D104E104F10429F72DE0222E312CC6
:100CD0003CE0432E512C4BE0642E712C0AE010E0D6
:100CE00059E0E52EF12C68E0C62ED12C86E0882E46
:100CF000912C90E0A92E90E0B92E89EC91E00E9411
:100D00001401181619069CF489EC91E00E94F20077
:100D10004091C7015091C8018634C9F4411551056D
:100D200081F481E090E09093C8018093C701A11401
:100D3000B10419F30E9420018823C1F20E9400002F
:100D4000D5CF4130510519F482E090E0ECCF42302C
:100D5000510589F4082E000C990BC0974AE0489F72
:100D60009001499F300D11243093C6012093C50195
:100D700083E090E0D8CF2091C5013091C601433087
:100D80005105D9F4082E000C990BC097820F931FC0
:100D90009093C6018093C50184E090E09093C801D0
:100DA0008093C70187E191E00E9491038091C50182
:100DB0009091C6010E942904BACF121613060CF0B6
:100DC000B6CF44305105B9F425E030E03093C80186
:100DD0002093C701082E000C990BC0979093010136
:100DE000809300018FE191E00E94910380910001C6
:100DF00090910101DFCF4530510599F49092C801DF
:100E00008092C701082E000C990BC0974AE0489FBA
:100E10009001499F300D11243093C4012093C301E8
:100E200086CF46305105E9F427E030E03093C80121
:100E30002093C701082E000C990BC0972091C30185
:100E40003091C401820F931F9093C4018093C3011A
:100E50008BE291E00E9491038091C3019091C401C3
:100E6000A9CF4730510569F4D092C801C092C7019B
:100E7000082E000C990BC0979093C2018093C1017A
:100E800056CF4830510569F4F092C801E092C7018D
:100E9000082E000C990BC0979093C0018093BF015E
:100EA00046CF4930510569F41093C8010093C7013A
:100EB000082E000C990BC0979093BE018093BD0142
:100EC00036CF4A30510569F47092C8016092C7016B
:100ED000082E000C990BC0979093BC018093BB0126
:100EE00026CF4B30510569F45092C8014092C7019A
:100EF000082E000C990BC0979093BA018093B9010A
:100F000016CF4C30510569F43092C8012092C701C8
:100F1000082E000C990BC0979093B8018093B701ED
:100F200006CF4D30510509F002CF2A30310509F0C6
:100F30008DC1082E000C990BC0979093B601809339
:100F4000B5018091C3019091C401009741F00197D0
:100F500009F452C11092C8011092C701E8CE80E393
:100F600091E00E9491038091C7019091C8010E9475
:100F700029048091B7019091B8010E94AC0380913F
:100F8000C1019091C2010E94AC038091BF01909178
:100F9000C0010E94AC038091BD019091BE010E94EE
:100FA000AC038091BB019091BC010E94AC03809185
:100FB000B9019091BA010E94290480910001909199
:100FC00001018130910509F071C08091B7019091C4
:100FD000B80120E041E1892B09F040E265E070E0D2
:100FE00086E193E00E94AF028091B5019091B60135
:100FF0009B838A834091C1019091BF0199832A818B
:101000003B8124303105F9F421E064E070E086E1B1
:1010100093E00E94AF0220E0498163E070E086E146
:1010200093E00E94AF022A813B8122303105F1F426
:1010300021E04091BD0162E070E086E193E00E9412
:10104000AF0220E021C020E064E070E086E193E0A0
:101050000E94AF028A819B810397E9F621E04981D2
:1010600063E070E086E193E00E94AF0220E04091EF
:10107000BD0162E070E086E193E00E94AF028A81E8
:101080009B8121E00197E9F64091BB0161E070E0AE
:1010900086E193E00E94AF0220E04091B90170E048
:1010A00060E086E193E00E94AF0254CF8230910568
:1010B00009F073C085E491E00E949E038091B7011E
:1010C0009091B80120E041E1892B09F040E265E010
:1010D00070E08EEB92E00E94AF028091B50190919A
:1010E000B6019B838A834091C1019091BF0199838E
:1010F0002A813B8124303105F9F421E064E070E07D
:101100008EEB92E00E94AF0220E0498163E070E044
:101110008EEB92E00E94AF022A813B8122303105A2
:10112000F1F421E04091BD0162E070E08EEB92E0CD
:101130000E94AF0220E021C020E064E070E08EEB6E
:1011400092E00E94AF028A819B810397E9F621E039
:10115000498163E070E08EEB92E00E94AF0220E0F4
:101160004091BD0162E070E08EEB92E00E94AF0220
:101170008A819B8121E00197E9F64091BB0161E002
:1011800070E08EEB92E00E94AF0220E04091B90146
:1011900070E060E08EEB92E086CF039709F0DACE44
:1011A00020E04091C10164E070E086E692E00E9498
:1011B000AF0220E04091BF0163E070E086E692E07C
:1011C0000E94AF0220E04091BD0162E070E086E63F
:1011D00092E00E94AF0220E04091BB0161E070E02C
:1011E00086E692E00E94AF0220E04091B90170E0F3
:1011F00060E086E692E057CF809100019091010176
:101200008130910559F489E591E00E949E0370E0D8
:1012100060E086E193E00E94DD029CCE8230910581
:1012200049F488E691E00E949E0370E060E08EEB56
:1012300092E0F1CF039709F08DCE87E791E00E940D
:101240009E0370E060E086E692E0E5CF86E891E0FC
:101250000E949E037FCEA1E21A2EAA1BBB1BFD019A
:101260000DC0AA1FBB1FEE1FFF1FA217B307E40785
:10127000F50720F0A21BB30BE40BF50B661F771FDD
:10128000881F991F1A9469F76095709580959095BD
:101290009B01AC01BD01CF010895EE0FFF1F05902A
:1012A000F491E02D0994F894FFCF010000000000B4
:1012B0005601B600E300A3011401F20006010D0A75
:1012C000006C656E67687420006E756D446973709C
:1012D0006C61792000636D642000746F74616C42EE
:1012E00079746573526563656269646F7320004544
:1012F0007363726576656E646F206E6F206C6364D5
:101300002032004C696D70616E646F206C636420E4
:1013100031004C696D70616E646F206C63642032C3
:10132000004C696D70616E646F206C6364203300E3
:101330004E6F7420616C6C206279746573207765E0
:101340007265206265696E6720726563656976659E
:06135000642E2E2E0000A9
:107E0000112484B714BE81FFF0D085E080938100F7
:107E100082E08093C00088E18093C10086E0809377
:107E2000C20080E18093C4008EE0C9D0259A86E02C
:107E300020E33CEF91E0309385002093840096BBD3
:107E4000B09BFECF1D9AA8958150A9F7CC24DD24C4
:107E500088248394B5E0AB2EA1E19A2EF3E0BF2EE7
:107E6000A2D0813461F49FD0082FAFD0023811F036
:107E7000013811F484E001C083E08DD089C08234E0
:107E800011F484E103C0853419F485E0A6D080C0E4
:107E9000853579F488D0E82EFF2485D0082F10E0AE
:107EA000102F00270E291F29000F111F8ED06801E7
:107EB0006FC0863521F484E090D080E0DECF843638
:107EC00009F040C070D06FD0082F6DD080E0C81688
:107ED00080E7D80618F4F601B7BEE895C0E0D1E017
:107EE00062D089930C17E1F7F0E0CF16F0E7DF06D8
:107EF00018F0F601B7BEE89568D007B600FCFDCFD4
:107F0000A601A0E0B1E02C9130E011968C91119780
:107F100090E0982F8827822B932B1296FA010C0160
:107F200087BEE89511244E5F5F4FF1E0A038BF0790
:107F300051F7F601A7BEE89507B600FCFDCF97BE46
:107F4000E89526C08437B1F42ED02DD0F82E2BD052
:107F50003CD0F601EF2C8F010F5F1F4F84911BD097
:107F6000EA94F801C1F70894C11CD11CFA94CF0C13
:107F7000D11C0EC0853739F428D08EE10CD085E9AC
:107F80000AD08FE07ACF813511F488E018D01DD067
:107F900080E101D065CF982F8091C00085FFFCCF94
:107FA0009093C60008958091C00087FFFCCF809118
:107FB000C00084FD01C0A8958091C6000895E0E648
:107FC000F0E098E1908380830895EDDF803219F02E
:107FD00088E0F5DFFFCF84E1DECF1F93182FE3DFCA
:107FE0001150E9F7F2DF1F91089580E0E8DFEE27F6
:047FF000FF270994CA
:027FFE00040479
:00000001FF
